:100000000C9446000C9465000C9465000C946500FB
:100010000C9465000C9465000C9465000C946500CC
:100020000C9465000C9465000C9465000C946500BC
:100030000C9465000C9465000C9465000C946500AC
:100040000C9465000C9465000C9465000C9465009C
:100050000C9465000C9465000C9465000C9465008C
:100060000C9465000C9465000C9465000C9465007C
:100070000C9465000C9465000C9465000C9465006C
:100080000C9465000C9465000C94650011241FBE4F
:10009000CFEFD0E4DEBFCDBF11E0A0E0B1E0ECE5F2
:1000A000F4E000E00BBF02C007900D92A631B1074B
:1000B000D9F711E0A6E1B1E001C01D92AC31B10762
:1000C000E1F70E94FE010C942C020C940000CF93E7
:1000D000DF9300D01F92CDB7DEB789837B836A831D
:1000E00089818A3031F48A819B81BC018DE00E9434
:1000F000670080EC90E0FC018081882F90E08072A6
:1001000099270097B1F386EC90E02981FC012083C8
:1001100080E090E00F900F900F90DF91CF910895C5
:10012000CF93DF93CDB7DEB780911A0190911B0179
:100130008230910509F44FC08330910530F4009767
:1001400069F08130910589F009C18330910509F486
:10015000C0C08430910509F4CCC000C181E090E0BA
:1001600090931B0180931A01FEC080E290E0FC0195
:100170008081882F90E09C012778332780910E01A1
:10018000882F90E02817390761F4809117018F5F5D
:100190008093170182E090E090931B0180931A01F5
:1001A00019C080E290E0FC018081882F90E0877880
:1001B00099278038910539F484E090E090931B01F1
:1001C00080931A0107C081E090E090931B01809317
:1001D0001A01C9C0C8C080E290E0FC018081882F6C
:1001E00090E09C012778332780911701882F90E0B9
:1001F000825F9E4FFC018081882F90E0281739078D
:1002000071F580911701863059F480911601882389
:1002100039F483E090E090931B0180931A011EC093
:1002200080911701863071F480911601813051F46C
:1002300081E08093180184E090E090931B0180930B
:100240001A010CC0809117018F5F8093170182E023
:1002500090E090931B0180931A013AC039C080E26C
:1002600090E0FC018081882F90E087789927803882
:10027000910539F484E090E090931B0180931A017A
:1002800027C080E290E0FC018081882F90E09C01F3
:100290002778332780911701882F90E00197825F9C
:1002A0009E4FFC018081882F90E02817390739F490
:1002B00082E090E090931B0180931A0109C0109294
:1002C000170181E090E090931B0180931A014BC0CD
:1002D0004AC081E08093160185E290E020911601EA
:1002E000FC01208381E090E090931B0180931A0130
:1002F0003AC01092160185E290E020911601FC01AF
:10030000208380911701882339F481E090E0909355
:100310001B0180931A0121C080911801882339F4B0
:1003200082E090E090931B0180931A0116C08091A7
:100330001801813059F4109218011092170181E0D0
:1003400090E090931B0180931A0107C081E090E038
:1003500090931B0180931A0106C005C010921B01E7
:1003600010921A01000080911A0190911B018230B5
:10037000910519F18330910530F4009759F08130DF
:10038000910589F038C08330910509F184309105D9
:1003900041F131C01092190188E290E020911901D9
:1003A000FC01208328C081E08093190188E290E05D
:1003B00020911901FC0120831EC082E08093190165
:1003C00088E290E020911901FC01208314C083E0B1
:1003D0008093190188E290E020911901FC012083AB
:1003E0000AC084E08093190188E290E0209119010D
:1003F000FC0120830000DF91CF910895CF93DF931C
:10040000CDB7DEB781E290E0FC01108282E290E09D
:100410002FEFFC01208384E290E02FEFFC0120838A
:1004200085E290E0FC01108287E290E02FEFFC0172
:10043000208388E290E0FC01108285E290E0FC01DC
:10044000108288E290E0FC01108210921B01109251
:0C0450001A010E949000FDCFF894FFCF2D
:10045C000000000200000000670000000000040023
:06046C0001000200010086
:00000001FF
