:100000000C9446000C9465000C9465000C946500FB
:100010000C9465000C9465000C9465000C946500CC
:100020000C9465000C9465000C9465000C946500BC
:100030000C9465000C9465000C9465000C946500AC
:100040000C9465000C9465000C9465000C9465009C
:100050000C9465000C9465000C9465000C9465008C
:100060000C9465000C9465000C9465000C9465007C
:100070000C9465000C9465000C9465000C9465006C
:100080000C9465000C9465000C94650011241FBE4F
:10009000CFEFD0E4DEBFCDBF11E0A0E0B1E0E6ECF1
:1000A000F4E000E00BBF02C007900D92AE30B10744
:1000B000D9F711E0AEE0B1E001C01D92A431B10763
:1000C000E1F70E9433020C9461020C940000CF937C
:1000D000DF9300D01F92CDB7DEB789837B836A831D
:1000E00089818A3031F48A819B81BC018DE00E9434
:1000F000670080EC90E0FC018081882F90E08072A6
:1001000099270097B1F386EC90E02981FC012083C8
:1001100080E090E00F900F900F90DF91CF910895C5
:10012000CF93DF93CDB7DEB7809112019091130189
:100130008230910509F449C08330910530F400976D
:1001400089F081309105A9F017C18430910509F437
:10015000C8C08430910508F475C08530910509F454
:10016000D0C00AC181E090E0909313018093120106
:1001700008C180E290E0FC018081882F90E08778C0
:1001800099278430910539F482E090E0909313012F
:100190008093120119C080E290E0FC018081882FD9
:1001A00090E0877899278038910539F485E090E0D0
:1001B000909313018093120107C081E090E0909327
:1001C000130180931201DDC0DCC080E290E0FC01ED
:1001D0008081882F90E087789927009739F483E011
:1001E00090E090931301809312012BC080E290E085
:1001F000FC018081882F90E08778992780389105CD
:1002000039F485E090E0909313018093120119C0B6
:1002100080E290E0FC018081882F90E08778992728
:100220008430910539F482E090E09093130180933B
:10023000120107C081E090E09093130180931201B6
:10024000A0C09FC080E290E0FC018081882F90E0F8
:100250008778992782309105C9F480910E0188230F
:1002600039F484E090E0909313018093120138C038
:1002700080910E018130A1F581E080930F0185E02E
:1002800090E090931301809312017BC080E290E094
:10029000FC018081882F90E087789927803891052C
:1002A00039F485E090E0909313018093120118C017
:1002B00080E290E0FC018081882F90E08778992788
:1002C000009739F483E090E090931301809312013A
:1002D00007C081E090E0909313018093120151C018
:1002E00050C081E080930E0185E290E020910E01E4
:1002F000FC01208381E090E0909313018093120130
:1003000040C010920E0185E290E020910E01FC01A8
:10031000208380911101823039F482E090E0909343
:1003200013018093120127C080911101833059F489
:1003300080910F01882339F483E090E090931301BA
:100340008093120118C080911101833069F480916B
:100350000F01813049F410920F0181E090E09093F9
:1003600013018093120107C081E090E09093130184
:100370008093120106C005C0109213011092120161
:10038000000080911201909113018230910581F15A
:100390008330910530F4009781F081309105D1F0E0
:1003A0005FC08430910509F43FC08430910570F13D
:1003B0008530910509F446C053C0809110018093A7
:1003C00011011092100188E290E020911001FC01CF
:1003D000208346C0809110018093110181E08093B9
:1003E000100188E290E020911001FC01208338C0C8
:1003F000809110018093110182E08093100188E2C6
:1004000090E020911001FC0120832AC0809110010E
:100410008093110183E08093100188E290E02091A5
:100420001001FC0120831CC08091100180931101F8
:1004300084E08093100188E290E020911001FC019B
:1004400020830EC0809110018093110185E080937C
:10045000100188E290E020911001FC01208300004F
:10046000DF91CF910895CF93DF93CDB7DEB781E2CF
:1004700090E0FC01108282E290E02FEFFC012083EB
:1004800084E290E02FEFFC01208385E290E0FC0104
:10049000108287E290E02FEFFC01208388E290E059
:1004A000FC01108285E290E0FC01108288E290E07D
:1004B000FC01108210921301109212010E94900010
:0604C000FDCFF894FFCF10
:0E04C6000000000200000000670000000000BF
:00000001FF
