:100000000C9446000C9465000C9465000C946500FB
:100010000C9465000C9465000C9465000C946500CC
:100020000C9465000C9465000C9465000C946500BC
:100030000C9465000C9465000C9465000C946500AC
:100040000C9465000C9465000C9465000C9465009C
:100050000C9465000C9465000C9465000C9465008C
:100060000C9465000C9465000C9465000C9465007C
:100070000C9465000C9465000C9465000C9465006C
:100080000C9465000C9465000C94650011241FBE4F
:10009000CFEFD0E4DEBFCDBF11E0A0E0B1E0EEE0F5
:1000A000F6E000E00BBF02C007900D92AE30B10742
:1000B000D9F711E0AEE0B1E001C01D92A231B10765
:1000C000E1F70E94E3020C9405030C940000CF9327
:1000D000DF9300D01F92CDB7DEB789837B836A831D
:1000E00089818A3031F48A819B81BC018DE00E9434
:1000F000670080EC90E0FC018081882F90E08072A6
:1001000099270097B1F386EC90E02981FC012083C8
:1001100080E090E00F900F900F90DF91CF910895C5
:10012000CF93DF93CDB7DEB780910F01909110018F
:100130008230910509F494C08330910530F4009722
:1001400089F081309105F1F00FC28430910509F4F6
:1001500045C18430910508F4E2C08530910509F469
:100160007EC102C287E080930E0188E290E0209178
:100170000E01FC01208381E090E0909310018093B8
:100180000F01F7C180E290E0FC018081882F90E0B0
:100190008370992781309105B1F480910E018930E7
:1001A00059F080910E018F5F80930E0188E290E0FC
:1001B00020910E01FC01208382E090E090931001D9
:1001C00080930F014CC080E290E0FC018081882F79
:1001D00090E08370992782309105B1F480910E01EF
:1001E000882359F080910E01815080930E0188E29E
:1001F00090E020910E01FC01208383E090E0909339
:10020000100180930F012BC080E290E0FC018081FF
:10021000882F90E0837099278330910579F41092AC
:100220000E0188E290E020910E01FC01208384E021
:1002300090E09093100180930F0111C080E290E054
:10024000FC018081882F90E083709927009739F412
:1002500081E090E09093100180930F018AC189C1E1
:1002600080E290E0FC018081882F90E083709927E4
:10027000009739F481E090E09093100180930F0192
:100280004DC080E290E0FC018081882F90E0837077
:1002900099278330910579F410920E0188E290E05D
:1002A00020910E01FC01208384E090E090931001E6
:1002B00080930F0133C080E290E0FC018081882FA1
:1002C00090E08370992782309105B1F480910E01FE
:1002D000882359F080910E01815080930E0188E2AD
:1002E00090E020910E01FC01208383E090E0909348
:1002F000100180930F0112C080E290E0FC01808128
:10030000882F90E0837099278130910539F482E03D
:1003100090E09093100180930F012BC12AC180E2DD
:1003200090E0FC018081882F90E0837099270097EE
:1003300039F481E090E09093100180930F014DC05B
:1003400080E290E0FC018081882F90E08370992703
:100350008330910579F410920E0188E290E02091AB
:100360000E01FC01208384E090E0909310018093C3
:100370000F0133C080E290E0FC018081882F90E083
:100380008370992781309105B1F480910E018930F5
:1003900059F080910E018F5F80930E0188E290E00A
:1003A00020910E01FC01208382E090E090931001E7
:1003B00080930F0112C080E290E0FC018081882FC1
:1003C00090E0837099278230910539F483E090E0C2
:1003D0009093100180930F01CCC0CBC080E290E0DD
:1003E000FC018081882F90E083709927009739F471
:1003F00081E090E09093100180930F012FC080E284
:1004000090E0FC018081882F90E0837099278130F3
:10041000910559F080E290E0FC018081882F90E006
:10042000837099278230910539F485E090E09093AC
:10043000100180930F0112C080E290E0FC018081E6
:10044000882F90E0837099278330910539F484E0F8
:1004500090E09093100180930F018BC08AC080E2DE
:1004600090E0FC018081882F90E0837099270097AD
:1004700039F481E090E09093100180930F0173C0F4
:1004800080E290E0FC018081882F90E083709927C2
:100490008330910579F410920E0188E290E020916A
:1004A0000E01FC01208384E090E090931001809382
:1004B0000F0159C080911101282F30E080E290E0B7
:1004C000FC018081882F90E08370992728173907D5
:1004D000A1F1809111018230B1F480910E01893037
:1004E00059F080910E018F5F80930E0188E290E0B9
:1004F00020910E01FC01208382E090E09093100196
:1005000080930F0130C080911101813061F580919D
:100510000E01882359F080910E01815080930E01C5
:1005200088E290E020910E01FC01208383E090E0BE
:100530009093100180930F011CC080911101282F0E
:1005400030E080E290E0FC018081882F90E08370B1
:1005500099272817390739F485E090E09093100126
:1005600080930F0106C005C01092100110920F0178
:10057000000080910F019091100183309105C9F026
:100580008430910538F481309105A9F082309105CD
:10059000A1F016C08430910591F08530910509F0E5
:1005A0000FC080E290E0FC01808183708093110194
:1005B00007C0000005C0000003C0000001C000002B
:1005C000DF91CF910895CF93DF93CDB7DEB781E26E
:1005D00090E0FC01108282E290E02FEFFC0120838A
:1005E00087E290E02FEFFC01208388E290E0FC019D
:1005F000108288E290E027E0FC0120831092100135
:0E06000010920F010E949000FDCFF894FFCFE2
:0E060E00000000020000000067000000000075
:00000001FF
