:100000000C9446000C9465000C9465000C946500FB
:100010000C9465000C9465000C9465000C946500CC
:100020000C9465000C9465000C9465000C946500BC
:100030000C9465000C9465000C9465000C946500AC
:100040000C9465000C9465000C9465000C9465009C
:100050000C9465000C9465000C9465000C9465008C
:100060000C9465000C9465000C9465000C9465007C
:100070000C9465000C9465000C9465000C9465006C
:100080000C9465000C9465000C94650011241FBE4F
:10009000CFEFD0E4DEBFCDBF11E0A0E0B1E0E2EFF2
:1000A000F2E000E00BBF02C007900D92AE30B10746
:1000B000D9F711E0AEE0B1E001C01D92A031B10767
:1000C000E1F70E9455010C9477010C940000CF9346
:1000D000DF9300D01F92CDB7DEB789837B836A831D
:1000E00089818A3031F48A819B81BC018DE00E9434
:1000F000670080EC90E0FC018081882F90E08072A6
:1001000099270097B1F386EC90E02981FC012083C8
:1001100080E090E00F900F900F90DF91CF910895C5
:10012000CF93DF93CDB7DEB780910E0190910F0191
:100130008230910509F469C08330910530F400974D
:1001400061F08130910581F07BC08330910509F425
:1001500041C08430910519F173C081E090E0909323
:100160000F0180930E0171C080E290E0FC0180815C
:10017000813039F484E090E090930F0180930E0178
:100180000DC080E290E0FC018081882339F481E099
:1001900090E090930F0180930E0157C056C080E20B
:1001A00090E0FC018081882339F483E090E0909313
:1001B0000F0180930E010DC080E290E0FC01808170
:1001C000813039F484E090E090930F0180930E0128
:1001D0003CC03BC080E290E0FC018081813039F47A
:1001E00082E090E090930F0180930E010DC080E2B9
:1001F00090E0FC018081882339F483E090E09093C3
:100200000F0180930E0121C020C080E290E0FC012C
:100210008081882339F481E090E090930F018093EE
:100220000E010DC080E290E0FC018081882339F44A
:1002300082E090E090930F0180930E0106C005C00C
:1002400010920F0110920E01000080910E0190910A
:100250000F018230910501F18330910520F4813046
:10026000910541F01FC08330910581F084309105E4
:1002700039F018C085E290E021E0FC01208312C033
:1002800085E290E022E0FC0120830CC085E290E052
:1002900022E0FC01208306C085E290E021E0FC0121
:1002A00020830000DF91CF910895CF93DF93CDB7E6
:1002B000DEB781E290E0FC01108282E290E02FEF55
:1002C000FC01208384E290E02FEFFC01208385E293
:1002D00090E0FC01108285E290E021E0FC012083A7
:1002E00010920F0110920E010E949000FDCFF89421
:0202F000FFCF3E
:0E02F200000000020000000067000000000095
:00000001FF
