:100000000C9446000C9465000C9465000C946500FB
:100010000C9465000C9465000C9465000C946500CC
:100020000C9465000C9465000C9465000C946500BC
:100030000C9465000C9465000C9465000C946500AC
:100040000C9465000C9465000C9465000C9465009C
:100050000C9465000C9465000C9465000C9465008C
:100060000C9465000C9465000C9465000C9465007C
:100070000C9465000C9465000C9465000C9465006C
:100080000C9465000C9465000C94650011241FBE4F
:10009000CFEFD0E4DEBFCDBF11E0A0E0B1E0ECE8EF
:1000A000F4E000E00BBF02C007900D92AE30B10744
:1000B000D9F711E0AEE0B1E001C01D92A231B10765
:1000C000E1F70E9416020C9444020C940000CF93B6
:1000D000DF9300D01F92CDB7DEB789837B836A831D
:1000E00089818A3031F48A819B81BC018DE00E9434
:1000F000670080EC90E0FC018081882F90E08072A6
:1001000099270097B1F386EC90E02981FC012083C8
:1001100080E090E00F900F900F90DF91CF910895C5
:10012000CF93DF93CDB7DEB780911001909111018D
:100130008230910509F449C08330910530F400976D
:1001400089F081309105A9F0FAC08430910509F455
:10015000B6C08430910508F475C08530910509F466
:10016000CCC0EDC081E090E090931101809310012C
:10017000EBC080E290E0FC018081882F90E08778DE
:1001800099278430910539F482E090E09093110131
:100190008093100119C080E290E0FC018081882FDB
:1001A00090E0877899278038910539F485E090E0D0
:1001B000909311018093100107C081E090E090932B
:1001C000110180931001C0C0BFC080E290E0FC012B
:1001D0008081882F90E087789927009739F483E011
:1001E00090E090931101809310012BC080E290E089
:1001F000FC018081882F90E08778992780389105CD
:1002000039F485E090E0909311018093100119C0BA
:1002100080E290E0FC018081882F90E08778992728
:100220008430910539F482E090E09093110180933D
:10023000100107C081E090E09093110180931001BC
:1002400083C082C080E290E0FC018081882F90E032
:10025000877899278230910539F484E090E0909373
:100260001101809310012AC080E290E0FC0180819E
:10027000882F90E0877899278038910539F485E0B8
:1002800090E0909311018093100118C080E290E0FB
:10029000FC018081882F90E087789927009739F4B6
:1002A00083E090E0909311018093100107C081E0FA
:1002B00090E0909311018093100146C045C085E203
:1002C00090E021E0FC01208380E290E0FC0180814D
:1002D000882F90E0877899278038910539F485E058
:1002E00090E090931101809310012EC084E090E083
:1002F000909311018093100127C085E290E0FC01EA
:10030000108280910F01823039F482E090E0909366
:1003100011018093100112C080910F01833039F4D4
:1003200083E090E0909311018093100107C081E079
:1003300090E0909311018093100106C005C01092C7
:100340001101109210010000809110019091110193
:100350008230910581F18330910530F4009781F06E
:1003600081309105D1F05FC08430910509F43FC020
:100370008430910570F18530910509F446C053C071
:1003800080910E0180930F0110920E0188E290E09F
:1003900020910E01FC01208346C080910E018093C4
:1003A0000F0181E080930E0188E290E020910E0120
:1003B000FC01208338C080910E0180930F0182E000
:1003C00080930E0188E290E020910E01FC012083D1
:1003D0002AC080910E0180930F0183E080930E016B
:1003E00088E290E020910E01FC0120831CC08091E6
:1003F0000E0180930F0184E080930E0188E290E06B
:1004000020910E01FC0120830EC080910E0180938B
:100410000F0185E080930E0188E290E020910E01AB
:10042000FC0120830000DF91CF910895CF93DF93EB
:10043000CDB7DEB781E290E0FC01108282E290E06D
:100440002FEFFC01208384E290E02FEFFC0120835A
:1004500085E290E0FC01108287E290E02FEFFC0142
:10046000208388E290E0FC01108285E290E0FC01AC
:10047000108288E290E0FC0110821092110110922B
:0C04800010010E949000FDCFF894FFCF07
:0E048C000000000200000000670000000000F9
:00000001FF
